S00C00004C6162332E73726563D6
S11300000C9434000C9449000C9449000C9449005D
S11300100C9449000C9449000C9449000C94490038
S11300200C9449000C9449000C9449000C94490028
S11300300C9449000C9449000C9449000C94490018
S11300400C9449000C9449000C9449000C94490008
S11300500C9449000C9449000C9449000C944900F8
S11300600C9449000C94490011241FBECFEFD8E032
S1130070DEBFCDBF11E0A0E0B1E0E4E7F1E002C0F3
S113008005900D92A031B107D9F70E9463000C943A
S1130090B8000C9400001092C50087E68093C40059
S11300A0E1ECF0E0808188618083E2ECF0E0808123
S11300B0866080830895E0ECF0E0908195FFFDCFA9
S11300C08093C60008950E944B0084B1807F84B958
S11300D08AB1806F8AB985B18F6085B98BB1806F21
S11300E08BB9AA24A394B12C0F2EF0E0CF2EF1E00B
S11300F0DF2EF02D6894882482F8912C8BB1750141
S1130100082C02C0EE0CFF1C0A94E2F79E2D909579
S113011089238BB98601C0E0D0E083B190E00C2E36
S113012002C0959587950A94E2F780FD0DC08FEF84
S113013092E5E7E081509040E040E1F700C0000024
S1130140F80180810E945B0021960F5F1F4FC4302D
S1130150D10519F78BB1E82AEBB8FFEF8F1A9F0A84
S113016024E0C20ED11C88E08816910439F6BCCF75
S1070170F894FFCF2D
S11301743132334134353642373839432A30234413
S9030000FC
