S00C00004C6162382E73726563D1
S11300000C9434000C943E000C943E000C943E007E
S11300100C943E000C943E000C943E000C943E0064
S11300200C943E000C943E000C943E000C943E0054
S11300300C943E000C943E000C944F000C945E0013
S11300400C943E000C943E000C943E000C943E0034
S11300500C943E000C943E000C943E000C943E0024
S11300600C943E000C943E0011241FBECFEFD8E048
S1130070DEBFCDBF0E9484000C94A2000C9400004B
S11300808DE487BD84B5826084BD85B5856085BDFA
S1130090EEE6F0E0808186608083789408951F9274
S11300A00F920FB60F9211248F9388B581112D9A58
S11300B08F910F900FBE0F901F9018951F920F9263
S11300C00FB60F9211248F9388B58E3408F42D98AF
S11300D08F910F900FBE0F901F90189582E290E0C1
S11300E00E948C008D3440F488BD68E0680F82E281
S11300F090E00E94940008958EE488BD60E082E25E
S113010090E00E9494000895F894259A2D980E94F6
S113011040000E946E00FFCFF999FECF92BD81BDD1
S1130120F89A992780B50895262FF999FECF1FBA1A
S113013092BD81BD20BD0FB6F894FA9AF99A0FBE0C
S10B014001960895F894FFCF25
S9030000FC
