S00C00004C6162372E73726563D2
S11300000C9434000C943E000C943E000C943E007E
S11300100C943E000C943E000C943E000C94810021
S11300200C948C000C943E000C943E000C943E0006
S11300300C943E000C943E000C943E000C943E0044
S11300400C943E000C943E000C943E000C943E0034
S11300500C943E000C9497000C943E000C943E00CB
S11300600C943E000C943E0011241FBECFEFD8E048
S1130070DEBFCDBF0E946A000C9478020C9400008D
S113008085B58D6085BDEEE6F0E080818260808379
S113009088EE93E060E070E00E940F02362F20E0CB
S11300A0032E000C440B550B60E074E284EF90E0E7
S11300B00E94230227BD0895E1EBF0E080818D606A
S11300C08083E0E7F0E080818660808384EA809327
S11300D0B3000895259A3B9878940E9440000E94AA
S11300E05C00ECE7F0E0808183648083EAE7F0E081
S11300F080818E6A8083EBE7F0E080818360808377
S1130100FFCF1F920F920FB60F9211242D9A0F90CA
S11301100FBE0F901F9018951F920F920FB60F925B
S113012011242D980F900FBE0F901F9018951F92B9
S11301300F920FB60F921124CF92DF92EF92FF929B
S11301402F933F934F935F936F937F938F939F93DB
S1130150AF93BF93CF93EF93FF9360917800709127
S11301607900C091B30080E090E00E94140120E087
S113017030E040E85AE30E947A016B017C016C2F65
S113018070E080E090E00E9416019B01AC01C70181
S1130190B6010E947A010E94E5006093B400FF91C9
S11301A0EF91CF91BF91AF919F918F917F916F917B
S11301B05F914F913F912F91FF90EF90DF90CF90FF
S11301C00F900FBE0F901F9018950E94590188F050
S11301D09F5798F0B92F9927B751B0F0E1F0660F07
S11301E0771F881F991F1AF0BA95C9F714C0B13048
S11301F091F00E947301B1E008950C947301672F8C
S1130200782F8827B85F39F0B93FCCF38695779576
S11302106795B395D9F73EF490958095709561955F
S11302207F4F8F4F9F4F0895E89409C097FB3EF48A
S113023090958095709561957F4F8F4F9F4F99232F
S1130240A9F0F92F96E9BB279395F69587957795AD
S11302506795B795F111F8CFFAF4BB0F11F460FF6D
S11302601BC06F5F7F4F8F4F9F4F16C0882311F0C5
S113027096E911C0772321F09EE8872F762F05C0D9
S1130280662371F096E8862F70E060E02AF09A9574
S1130290660F771F881FDAF7880F9695879597F969
S11302A0089557FD9058440F551F59F05F3F71F062
S11302B04795880F97FB991F61F09F3F79F08795C9
S11302C00895121613061406551FF2CF4695F1DF52
S11302D008C0161617061806991FF1CF86957105E2
S11302E0610508940895E894BB2766277727CB0116
S11302F097F908950E948D010C94FE010E94F0016B
S113030038F00E94F70120F0952311F00C94E701D6
S11303100C94ED0111240C9474010E94510170F3AA
S1130320959FC1F3950F50E0551F629FF001729F96
S1130330BB27F00DB11D639FAA27F00DB11DAA1FA5
S1130340649F6627B00DA11D661F829F2227B00DF2
S1130350A11D621F739FB00DA11D621F839FA00D7D
S1130360611D221F749F3327A00D611D231F849FCD
S1130370600D211D822F762F6A2F11249F57504024
S11303809AF0F1F088234AF0EE0FFF1FBB1F661F9F
S1130390771F881F91505040A9F79E3F510580F068
S11303A00C94E7010C9474015F3FE4F3983ED4F39A
S11303B0869577956795B795F795E7959F5FC1F70C
S11303C0FE2B880F911D9695879597F9089597F9B7
S11303D09F6780E870E060E008959FEF80EC0895E7
S11303E000240A9416161706180609060895002410
S11303F00A9412161306140605060895092E03948A
S1130400000C11F4882352F0BB0F40F4BF2B11F4FD
S113041060FF04C06F5F7F4F8F4F9F4F089597FB1E
S1130420072E16F4009407D077FD09D00E944202EB
S113043007FC05D03EF4909581959F4F08957095E3
S113044061957F4F0895052E97FB1EF400940E943A
S11304503A0257FD07D00E94560207FC03D04EF41F
S11304600C943A0250954095309521953F4F4F4F4B
S11304705F4F089590958095709561957F4F8F4F4C
S11304809F4F0895AA1BBB1B51E107C0AA1FBB1FA6
S1130490A617B70710F0A61BB70B881F991F5A950C
S11304A0A9F780959095BC01CD010895A1E21A2E7B
S11304B0AA1BBB1BFD010DC0AA1FBB1FEE1FFF1F04
S11304C0A217B307E407F50720F0A21BB30BE40B54
S11304D0F50B661F771F881F991F1A9469F760959B
S11304E07095809590959B01AC01BD01CF01089555
S10704F0F894FFCFAA
S9030000FC
